:100000000C944E000C946D000C946D000C946D00DB
:100010000C946D000C946D000C946D000C946D00AC
:100020000C946D000C946D000C946D000C946D009C
:100030000C946D000C94E6000C946D000C946D0013
:100040000C946D000C946D000C946D000C946D007C
:100050000C946D000C946D000C946D000C946D006C
:100060000C946D000C946D000C946D000C946D005C
:100070000C946D000C946D000C946D000C946D004C
:100080000C946D000C946D000C946D004B025002AA
:1000900079029602B302D002ED02F20211241FBED1
:1000A000CFEFD0E4DEBFCDBF11E0A0E0B1E0EAEDDC
:1000B000F0E100E00BBF02C007900D92A432B1073F
:1000C000D9F721E0A4E2B1E001C01D92AC35B2073E
:1000D000E1F70E94B2050C946B080C940000CF93DA
:1000E000DF9300D01F92CDB7DEB789837B836A830D
:1000F00089818A3031F48A819B81BC018DE00E9424
:100100006F0080EC90E0FC018081882F90E080728D
:100110009927892BB1F386EC90E02981FC0120839B
:1001200080E090E00F900F900F90DF91CF910895B5
:10013000CF93DF93CDB7DEB781E890E02BE0FC01F1
:10014000208388E890E02DE730E0FC0131832083B4
:100150008FE690E022E0FC01208384E890E0FC013F
:100160001182108280910E0190910F01A0911001D7
:10017000B09111018093250190932601A09327014E
:10018000B09328018FE590E02FE530E0F901208160
:100190002068FC0120830000DF91CF910895CF9368
:1001A000DF93CDB7DEB781E890E0FC01108200005C
:1001B000DF91CF910895CF93DF93CDB7DEB781E084
:1001C000809324010000DF91CF9108951F920F9238
:1001D00000905F000F92112400905B000F922F930C
:1001E0003F934F935F936F937F938F939F93AF93BF
:1001F000BF93EF93FF93CF93DF93CDB7DEB780919B
:10020000250190912601A0912701B0912801019725
:10021000A109B1098093250190932601A09327019C
:10022000B09328018091250190912601A09127018A
:10023000B0912801892B8A2B8B2B91F40E94DB0033
:1002400080910E0190910F01A0911001B0911101C8
:100250008093250190932601A0932701B093280154
:100260000000DF91CF91FF91EF91BF91AF919F91EE
:100270008F917F916F915F914F913F912F910F904F
:1002800000925B000F9000925F000F901F901895F6
:10029000CF93DF9300D000D0CDB7DEB769837A83E8
:1002A0008B839C8389819A81AB81BC8180930E0171
:1002B00090930F01A0931001B093110180910E0152
:1002C00090910F01A0911001B0911101809325012F
:1002D00090932601A0932701B093280100000F906E
:1002E0000F900F900F90DF91CF910895CF93DF93F0
:1002F000CDB7DEB72C970FB6F894DEBF0FBECDBFDB
:100300006D837E838F83988729873A874B875C87A5
:100310008D819E81AF81B88529853A854B855C8525
:10032000BC01CD010E949107DC01CB0189839A8336
:10033000AB83BC8389819A81AB81BC81892B8A2B59
:100340008B2B29F489859A85AB85BC8511C089855D
:100350009A85AB85BC858D839E83AF83B887898161
:100360009A81AB81BC8189879A87AB87BC87D0CFC4
:10037000BC01CD012C960FB6F894DEBF0FBECDBFE9
:10038000DF91CF910895CF93DF93CDB7DEB7279755
:100390000FB6F894DEBF0FBECDBF9F838E83198248
:1003A0001A828E819F81892B29F481E090E09F83BE
:1003B0008E8301C000008E819F81019709F02DC0BE
:1003C00080912901882F90E0895A9E4FFC018081FD
:1003D000898381E08B831D821C8208C08B81880FFA
:1003E0008B838C819D8101969D838C8380912901D3
:1003F000282F30E08C819D81821793077CF38B81BD
:100400008A83809129018F5F80932901809129013E
:10041000863010F010922901000088E290E02981D6
:10042000FC0120838BE290E02A812095FC0120834F
:100430008E819F8127960FB6F894DEBF0FBECDBF89
:10044000DF91CF910895CF93DF93CDB7DEB7279794
:100450000FB6F894DEBF0FBECDBF9F838E83198287
:1004600080E290E0FC01808180958D838E819F8168
:10047000092E000CAA0BBB0B40E050E027E030E057
:10048000841B950B2817390708F4BDC08A5B9F4F62
:10049000FC010C94B30781E090E09F838E83B3C08E
:1004A0008D81882F90E081709927892B29F082E037
:1004B00090E09F838E83A7C08D81882F90E082700B
:1004C0009927892B29F084E090E09F838E839BC03D
:1004D0008D81882F90E084709927892B29F086E000
:1004E00090E09F838E838FC081E090E09F838E8316
:1004F0008AC08D81882F90E081709927892B29F0FF
:1005000083E090E09F838E837EC08D81882F90E072
:1005100082709927892B29F084E090E09F838E8355
:1005200072C081E090E09F838E836DC08D81882FA3
:1005300090E081709927892B29F083E090E09F83D8
:100540008E8361C08D81882F90E082709927892BDE
:1005500029F084E090E09F838E8355C081E090E095
:100560009F838E8350C08D81882F90E08170992762
:10057000892B29F082E090E09F838E8344C08D8197
:10058000882F90E082709927892B29F085E090E0F0
:100590009F838E8338C081E090E09F838E8333C039
:1005A0008D81882F90E081709927892B29F082E036
:1005B00090E09F838E8327C08D81882F90E082708A
:1005C0009927892B29F085E090E09F838E831BC0BB
:1005D00081E090E09F838E8316C087E090E09F8348
:1005E0008E8311C08D81882F90E084709927892B8C
:1005F00029F087E090E09F838E8304C081E090E043
:100600009F838E8300008E819F818430910579F0D5
:1006100086309105B1F0029749F58091120186303C
:1006200010F5809112018F5F809312011CC08091A0
:1006300012018230D0F0809112018150809312011A
:1006400014C084E08093120183E08093130183E05F
:100650008093140180E18093150184E0809316015A
:1006600010922A0103C0000001C0000081E08A83CB
:100670001C821B8218C080911201882F90E09C017F
:10068000215031098B819C818217930724F0998135
:100690008A81892B89838A81880F8A838B819C81B7
:1006A00001969C838B8380911201882F90E09C019E
:1006B0002F5F3F4F8B819C8128173907E4F6898192
:1006C00080935B018E819F8127960FB6F894DEBFE1
:1006D0000FBECDBFDF91CF910895CF93DF93CDB7FC
:1006E000DEB72B970FB6F894DEBF0FBECDBF9B874A
:1006F0008A8719820E941B082AE030E0B9010E9413
:100700007D079E838D8380911301282F30E0809197
:100710001601882F90E0A901481B590BCA01988740
:100720008F838D819E810797ECF48F8198851816B1
:10073000190654F480911301823030F08091130136
:100740008150809313013AC08F8198859923B4F525
:1007500080911301863090F5809113018F5F809313
:1007600013012CC08F8198851816190654F48091B6
:100770001301863030F4809113018F5F8093130151
:100780001DC08F819885992354F480911301823084
:1007900030F0809113018150809313010FC080913C
:1007A0001301863030F4809113018F5F8093130121
:1007B00005C08091130181508093130181E08A83E9
:1007C0001C821B8218C080911301882F90E09C012D
:1007D000215031098B819C818217930724F09981E4
:1007E0008A81892B89838A81880F8A838B819C8166
:1007F00001969C838B8380911301882F90E09C014C
:100800002F5F3F4F8B819C8128173907E4F6898140
:100810008093570180911301898785E290E025E25A
:1008200030E0F90120812F70FC01208385E290E007
:1008300025E230E0F90130812985232BFC0120835A
:100840008A859B852B960FB6F894DEBF0FBECDBF71
:10085000DF91CF910895CF93DF93CDB7DEB780912D
:100860002A01882F90E081709927892B31F080919F
:100870002A018E7F80932A0105C080912A01816020
:1008800080932A010000DF91CF910895CF93DF93E9
:10089000CDB7DEB780912A01882F90E0827099272A
:1008A000892B31F080912A018D7F80932A0105C028
:1008B00080912A01826080932A010000DF91CF910C
:1008C0000895CF93DF9300D000D01F92CDB7DEB74D
:1008D0009D838C838C819D81892B29F481E090E01C
:1008E0009D838C8301C00000809116018295807FDA
:1008F0008B8385E290E025E230E0F9012081207FC2
:10090000FC01208385E290E025E230E0F9013081AE
:100910002B81232BFC0120838C819D81019709F081
:10092000F1C080912A01882F90E082709927892B4D
:1009300009F455C080911401833030F48091140182
:100940008F5F809314019EC080911201882F90E0E8
:100950009C012150310980911601882F90E02817C1
:10096000390751F40E9446040E942B04809114011F
:1009700081508093140186C080911201882F90E0ED
:100980009C012F5F3F4F80911601882F90E0281720
:10099000390751F40E9446040E942B0480911401EF
:1009A0008150809314016EC09091120180911601C4
:1009B000981741F40E94460480911401815080935D
:1009C000140160C083E080932A0181E080931401C8
:1009D00088E08093150183E08093160153C08091D5
:1009E0001401823030F08091140181508093140101
:1009F00049C080911301882F90E09C01215031095A
:100A000080911601882F90E02817390751F40E9431
:100A100046040E942B04809114018F5F809314017F
:100A200031C080911301882F90E09C012F5F3F4FD0
:100A300080911601882F90E02817390751F40E9401
:100A400046040E942B04809114018F5F809314014F
:100A500019C09091130180911601981741F40E94DA
:100A60004604809114018F5F809314010BC0109293
:100A70002A0183E08093140180E18093150184E0D2
:100A80008093160180912A01882F90E08170992728
:100A9000892BE1F080911501813458F48091150182
:100AA000880F80931501809116018F5F8093160146
:100AB00028C00E942B048091150186958093150112
:100AC000809116018150809316011BC08091150101
:100AD000823058F0809115018695809315018091A0
:100AE00016018150809316010CC00E942B04809146
:100AF0001501880F80931501809116018F5F8093F7
:100B00001601000081E090E09A8389831DC08091E6
:100B10001401282F30E089819A812817390749F478
:100B20002091150189819A81895A9E4FFC01208369
:100B300006C089819A81895A9E4FFC011082898161
:100B40009A8101969A83898389819A810497FCF21C
:100B50008C819D810F900F900F900F900F90DF91DF
:100B6000CF9108950F931F93CF93DF93CDB7DEB747
:100B700061970FB6F894DEBF0FBECDBF81E290E063
:100B8000FC01108282E290E02FEFFC01208384E2DE
:100B900090E02FEFFC01208385E290E0FC011082C1
:100BA00087E290E02FEFFC01208388E290E0FC01D7
:100BB00010828AE290E02FEFFC0120838BE290E02C
:100BC000FC01108288E0EBE1F1E0DE011A96019071
:100BD0000D928A95E1F784E090E098878F831986DB
:100BE000898580932B0184E190E0A0E0B0E08093C0
:100BF0002C0190932D01A0932E01B0932F01809191
:100C00002C0190912D01A0912E01B0912F01809384
:100C1000300190933101A0933201B093330183E20C
:100C200092E0909335018093340189858093360159
:100C30008EE591E0A0E0B0E0809337019093380119
:100C4000A0933901B0933A01809137019091380116
:100C5000A0913901B0913A0180933B0190933C01FE
:100C6000A0933D01B0933E018DE693E09093400147
:100C700080933F0189858093410188EE93E0A0E055
:100C8000B0E08093420190934301A0934401B0935C
:100C900045018091420190914301A0914401B0919E
:100CA00045018093460190934701A0934801B0937A
:100CB000490181E694E090934B0180934A01898534
:100CC00080934C0181E090E0A0E0B0E080934D0182
:100CD00090934E01A0934F01B093500180914D012C
:100CE00090914E01A0914F01B0915001809351011C
:100CF00090935201A0935301B093540183EC91E07F
:100D000090935601809355018A859B85FC018181D2
:100D10009281A381B4818B839C83AD83BE8381E068
:100D200090E09A83898325C089819A81880F991FD1
:100D30009E012F5F3F4F820F931F0996FC01808118
:100D40009181FC0121813281438154818B819C817D
:100D5000AD81BE81BC01CD010E947601DC01CB01D9
:100D60008B839C83AD83BE8389819A8101969A830C
:100D7000898329813A818F81988528173907A0F2C4
:100D80008B819C81AD81BE81BC01CD010E94480157
:100D90000E9498001A821982A0C089819A81880FC6
:100DA000991F9E012F5F3F4F820F931F0996FC01F1
:100DB00080819181FC01258136814781508589811F
:100DC0009A81880F991FBE016F5F7F4F860F971F13
:100DD0000996FC0180819181FC0181819281A3812E
:100DE000B481281739074A075B0709F045C0898194
:100DF0009A81880F991F9E012F5F3F4F820F931F8B
:100E00000996FC010081118189819A81880F991FBF
:100E10009E012F5F3F4F820F931F0996FC01808137
:100E20009181FC012185328589819A81880F991FE2
:100E3000AE014F5F5F4F840F951F0996FC018081C3
:100E40009181FC018081082E000C990BF901099514
:100E5000F801808389819A81880F991F9E012F5FF5
:100E60003F4F820F931F0996FC0180819181FC0105
:100E7000158216821782108689819A81880F991FA0
:100E80009E012F5F3F4F820F931F0996FC016081E7
:100E9000718189819A81880F991F9E012F5F3F4F31
:100EA000820F931F0996FC0180819181FC012581AD
:100EB0003681478150858B819C81AD81BE81820FB7
:100EC000931FA41FB51FFB0185839683A783B0875B
:100ED00089819A8101969A83898329813A818F81B8
:100EE00098852817390708F458CF0000809124010D
:100EF0008823E1F3109224014DCF97FB072E16F4BF
:100F0000009407D077FD09D00E94BC0707FC05D0EC
:100F10003EF4909581959F4F0895709561957F4F10
:100F20000895A1E21A2EAA1BBB1BFD010DC0AA1F2A
:100F3000BB1FEE1FFF1FA217B307E407F50720F042
:100F4000A21BB30BE40BF50B661F771F881F991FBD
:100F50001A9469F760957095809590959B01AC0106
:100F6000BD01CF010895EE0FFF1F0024001C0BBE32
:100F70000790F691E02D0994AA1BBB1B51E107C015
:100F8000AA1FBB1FA617B70710F0A61BB70B881F19
:100F9000991F5A95A9F780959095BC01CD010895A8
:100FA0008F929F92AF92BF92CF92DF92EF92FF9279
:100FB000CF93DF93EC01688179818A819B816115F0
:100FC00071058105910521F464E279ED8BE597E0E7
:100FD0002DE133EF41E050E00E942A0849015A0117
:100FE0009B01AC01A7EAB1E40E9449086B017C01B6
:100FF000ACEEB4EFA50194010E945708DC01CB01CF
:101000008C0D9D1DAE1DBF1DB7FF03C00197A1092B
:10101000B04888839983AA83BB839F77DF91CF9160
:10102000FF90EF90DF90CF90BF90AF909F908F9008
:1010300008950C94D00787E191E00C94D007A0E0CC
:10104000B0E08093170190931801A0931901B09319
:101050001A010895052E97FB1EF400940E94410882
:1010600057FD07D00E94910707FC03D04EF40C9463
:10107000410850954095309521953F4F4F4F5F4F18
:10108000089590958095709561957F4F8F4F9F4FF4
:1010900008950E945C08A59F900DB49F900DA49F99
:1010A000800D911D11240895B7FF0C9449080E94EA
:1010B0004908821B930B0895A29FB001B39FC00102
:1010C000A39F700D811D1124911DB29F700D811D74
:0A10D0001124911D0895F894FFCF3C
:1010DA0000000002000000006F0000000000010094
:1010EA0000000403031004010000002B0136014133
:0410FA00014C0100A4
:00000001FF
