:100000000C944E000C946D000C946D000C946D00DB
:100010000C946D000C946D000C946D000C946D00AC
:100020000C946D000C946D000C946D000C946D009C
:100030000C946D000C94E6000C946D000C946D0013
:100040000C946D000C946D000C946D000C946D007C
:100050000C946D000C946D000C946D000C946D006C
:100060000C946D000C946D000C946D000C946D005C
:100070000C946D000C946D000C946D000C946D004C
:100080000C946D000C946D000C946D004B025002AA
:1000900079029602B302D002ED02F20211241FBED1
:1000A000CFEFD0E4DEBFCDBF11E0A0E0B1E0ECE6E1
:1000B000F1E100E00BBF02C007900D92A432B1073E
:1000C000D9F721E0A4E2B1E001C01D92AD35B2073D
:1000D000E1F70E94BD050C94B4080C940000CF9386
:1000E000DF9300D01F92CDB7DEB789837B836A830D
:1000F00089818A3031F48A819B81BC018DE00E9424
:100100006F0080EC90E0FC018081882F90E080728D
:100110009927892BB1F386EC90E02981FC0120839B
:1001200080E090E00F900F900F90DF91CF910895B5
:10013000CF93DF93CDB7DEB781E890E02BE0FC01F1
:10014000208388E890E02DE730E0FC0131832083B4
:100150008FE690E022E0FC01208384E890E0FC013F
:100160001182108280910E0190910F01A0911001D7
:10017000B09111018093250190932601A09327014E
:10018000B09328018FE590E02FE530E0F901208160
:100190002068FC0120830000DF91CF910895CF9368
:1001A000DF93CDB7DEB781E890E0FC01108200005C
:1001B000DF91CF910895CF93DF93CDB7DEB781E084
:1001C000809324010000DF91CF9108951F920F9238
:1001D00000905F000F92112400905B000F922F930C
:1001E0003F934F935F936F937F938F939F93AF93BF
:1001F000BF93EF93FF93CF93DF93CDB7DEB780919B
:10020000250190912601A0912701B0912801019725
:10021000A109B1098093250190932601A09327019C
:10022000B09328018091250190912601A09127018A
:10023000B0912801892B8A2B8B2B91F40E94DB0033
:1002400080910E0190910F01A0911001B0911101C8
:100250008093250190932601A0932701B093280154
:100260000000DF91CF91FF91EF91BF91AF919F91EE
:100270008F917F916F915F914F913F912F910F904F
:1002800000925B000F9000925F000F901F901895F6
:10029000CF93DF9300D000D0CDB7DEB769837A83E8
:1002A0008B839C8389819A81AB81BC8180930E0171
:1002B00090930F01A0931001B093110180910E0152
:1002C00090910F01A0911001B0911101809325012F
:1002D00090932601A0932701B093280100000F906E
:1002E0000F900F900F90DF91CF910895CF93DF93F0
:1002F000CDB7DEB72C970FB6F894DEBF0FBECDBFDB
:100300006D837E838F83988729873A874B875C87A5
:100310008D819E81AF81B88529853A854B855C8525
:10032000BC01CD010E94DA07DC01CB0189839A83ED
:10033000AB83BC8389819A81AB81BC81892B8A2B59
:100340008B2B29F489859A85AB85BC8511C089855D
:100350009A85AB85BC858D839E83AF83B887898161
:100360009A81AB81BC8189879A87AB87BC87D0CFC4
:10037000BC01CD012C960FB6F894DEBF0FBECDBFE9
:10038000DF91CF910895CF93DF93CDB7DEB7279755
:100390000FB6F894DEBF0FBECDBF9F838E83198248
:1003A0001A828E819F81892B29F481E090E09F83BE
:1003B0008E8301C000008E819F81019709F02DC0BE
:1003C00080912901882F90E0885A9E4FFC018081FE
:1003D000898381E08B831D821C8208C08B81880FFA
:1003E0008B838C819D8101969D838C8380912901D3
:1003F000282F30E08C819D81821793077CF38B81BD
:100400008A83809129018F5F80932901809129013E
:10041000863010F010922901000088E290E02981D6
:10042000FC0120838BE290E02A812095FC0120834F
:100430008E819F8127960FB6F894DEBF0FBECDBF89
:10044000DF91CF910895CF93DF93CDB7DEB7279794
:100450000FB6F894DEBF0FBECDBF9F838E83198287
:1004600080E290E0FC01808180958D838E819F8168
:10047000092E000CAA0BBB0B40E050E027E030E057
:10048000841B950B2817390708F4BDC08A5B9F4F62
:10049000FC010C94FC0781E090E09F838E83B3C045
:1004A0008D81882F90E081709927892B29F082E037
:1004B00090E09F838E83A7C08D81882F90E082700B
:1004C0009927892B29F084E090E09F838E839BC03D
:1004D0008D81882F90E084709927892B29F086E000
:1004E00090E09F838E838FC081E090E09F838E8316
:1004F0008AC08D81882F90E081709927892B29F0FF
:1005000083E090E09F838E837EC08D81882F90E072
:1005100082709927892B29F084E090E09F838E8355
:1005200072C081E090E09F838E836DC08D81882FA3
:1005300090E081709927892B29F083E090E09F83D8
:100540008E8361C08D81882F90E082709927892BDE
:1005500029F084E090E09F838E8355C081E090E095
:100560009F838E8350C08D81882F90E08170992762
:10057000892B29F082E090E09F838E8344C08D8197
:10058000882F90E082709927892B29F085E090E0F0
:100590009F838E8338C081E090E09F838E8333C039
:1005A0008D81882F90E081709927892B29F082E036
:1005B00090E09F838E8327C08D81882F90E082708A
:1005C0009927892B29F085E090E09F838E831BC0BB
:1005D00081E090E09F838E8316C087E090E09F8348
:1005E0008E8311C08D81882F90E084709927892B8C
:1005F00029F087E090E09F838E8304C081E090E043
:100600009F838E8300008E819F818430910579F0D5
:1006100086309105B1F0029749F58091120186303C
:1006200010F5809112018F5F809312011CC08091A0
:1006300012018230D0F0809112018150809312011A
:1006400014C084E08093120183E08093130183E05F
:100650008093150180E18093160184E08093170157
:1006600010922A0103C0000001C0000081E08A83CB
:100670001C821B8218C080911201882F90E09C017F
:10068000215031098B819C818217930724F0998135
:100690008A81892B89838A81880F8A838B819C81B7
:1006A00001969C838B8380911201882F90E09C019E
:1006B0002F5F3F4F8B819C8128173907E4F6898192
:1006C00080935C018E819F8127960FB6F894DEBFE0
:1006D0000FBECDBFDF91CF910895CF93DF93CDB7FC
:1006E000DEB72B970FB6F894DEBF0FBECDBF9B874A
:1006F0008A8719820E9464082AE030E0B9010E94CA
:10070000C6079E838D8380911301282F30E080914E
:100710001701882F90E0A901481B590BCA0198873F
:100720008F838D819E810797ECF48F8198851816B1
:10073000190654F480911301823030F08091130136
:100740008150809313013AC08F8198859923B4F525
:1007500080911301863090F5809113018F5F809313
:1007600013012CC08F8198851816190654F48091B6
:100770001301863030F4809113018F5F8093130151
:100780001DC08F819885992354F480911301823084
:1007900030F0809113018150809313010FC080913C
:1007A0001301863030F4809113018F5F8093130121
:1007B00005C08091130181508093130181E08A83E9
:1007C0001C821B8218C080911301882F90E09C012D
:1007D000215031098B819C818217930724F09981E4
:1007E0008A81892B89838A81880F8A838B819C8166
:1007F00001969C838B8380911301882F90E09C014C
:100800002F5F3F4F8B819C8128173907E4F6898140
:100810008093580180911301898785E290E025E259
:1008200030E0F90120812F70FC01208385E290E007
:1008300025E230E0F90130812985232BFC0120835A
:100840008A859B852B960FB6F894DEBF0FBECDBF71
:10085000DF91CF910895CF93DF93CDB7DEB780912D
:100860002A01882F90E081709927892B31F080919F
:100870002A018E7F80932A0105C080912A01816020
:1008800080932A010000DF91CF910895CF93DF93E9
:10089000CDB7DEB780912A01882F90E0827099272A
:1008A000892B31F080912A018D7F80932A0105C028
:1008B00080912A01826080932A010000DF91CF910C
:1008C0000895CF93DF9300D000D01F92CDB7DEB74D
:1008D0009D838C838C819D81892B29F481E090E01C
:1008E0009D838C8301C00000809117018295807FD9
:1008F0008B8385E290E025E230E0F9012081207FC2
:10090000FC01208385E290E025E230E0F9013081AE
:100910002B81232BFC0120838C819D81019709F081
:10092000FCC080912A01882F90E082709927892B42
:1009300009F457C080911501833030F4809115017E
:100940008F5F80931501A2C080911201882F90E0E3
:100950009C012150310980911701882F90E02817C0
:10096000390771F080911201882F90E09C012F5F70
:100970003F4F80911701882F90E02817390781F4A5
:100980000E9446040E942B0480911501815080939F
:10099000150182E08093140181E080932B0176C0E1
:1009A0009091120180911701981759F40E94460402
:1009B0008091150181508093150181E0809314018D
:1009C00065C083E080932A0181E08093150188E06F
:1009D0008093160183E08093170181E080931401D6
:1009E00055C080911501823030F080911501815001
:1009F000809315014BC080911301882F90E09C01DA
:100A00002150310980911701882F90E0281739076C
:100A100071F080911301882F90E09C012F5F3F4F70
:100A200080911701882F90E02817390781F40E94E0
:100A300046040E942B04809115018F5F809315015D
:100A400082E08093140181E080932B011FC090917C
:100A5000130180911701981759F40E944604809160
:100A600015018F5F8093150181E0809314010EC002
:100A700010922A0183E08093150180E18093160192
:100A800084E08093170181E08093140180912B0111
:100A9000882319F010922B013FC080912A01882FE2
:100AA00090E081709927892BE1F0809116018134C3
:100AB00058F480911601880F8093160180911701D8
:100AC0008F5F8093170128C00E942B04809116012C
:100AD00086958093160180911701815080931701AC
:100AE0001BC080911601823058F0809116018695C6
:100AF00080931601809117018150809317010CC0DB
:100B00000E942B0480911601880F8093160180911A
:100B100017018F5F80931701000081E090E09A83B6
:100B200089831DC080911501282F30E089819A8129
:100B30002817390749F42091160189819A81885A2A
:100B40009E4FFC01208306C089819A81885A9E4F5E
:100B5000FC01108289819A8101969A838983898117
:100B60009A810497FCF28C819D810F900F900F90D9
:100B70000F900F90DF91CF9108950F931F93CF9314
:100B8000DF93CDB7DEB761970FB6F894DEBF0FBE27
:100B9000CDBF81E290E0FC01108282E290E02FEF75
:100BA000FC01208384E290E02FEFFC01208385E2AA
:100BB00090E0FC01108287E290E02FEFFC0120839F
:100BC00088E290E0FC0110828AE290E02FEFFC01C5
:100BD00020838BE290E0FC01108288E0ECE1F1E000
:100BE000DE011A9601900D928A95E1F784E090E07B
:100BF00098878F831986898580932C0184E190E002
:100C0000A0E0B0E080932D0190932E01A0932F01DE
:100C1000B093300180912D0190912E01A0912F0170
:100C2000B09130018093310190933201A093330150
:100C3000B093340183E292E09093360180933501C2
:100C40008985809337018EE591E0A0E0B0E0809344
:100C5000380190933901A0933A01B0933B01809100
:100C6000380190913901A0913A01B0913B018093F4
:100C70003C0190933D01A0933E01B0933F018DE66E
:100C800093E09093410180934001898580934201D4
:100C900088EE93E0A0E0B0E080934301909344019C
:100CA000A0934501B0934601809143019091440186
:100CB000A0914501B091460180934701909348016E
:100CC000A0934901B0934A0181E694E090934C01CE
:100CD00080934B01898580934D0181E090E0A0E0F5
:100CE000B0E080934E0190934F01A0935001B093D8
:100CF000510180914E0190914F01A0915001B0910E
:100D000051018093520190935301A0935401B093E9
:100D1000550183EC91E090935701809356018A85A9
:100D20009B85FC0181819281A381B4818B839C830B
:100D3000AD83BE8381E090E09A83898325C0898159
:100D40009A81880F991F9E012F5F3F4F820F931F3B
:100D50000996FC0180819181FC01218132814381CE
:100D600054818B819C81AD81BE81BC01CD010E94EB
:100D70007601DC01CB018B839C83AD83BE838981AB
:100D80009A8101969A83898329813A818F819885F6
:100D900028173907A0F28B819C81AD81BE81BC01EF
:100DA000CD010E9448010E9498001A821982A0C0B9
:100DB00089819A81880F991F9E012F5F3F4F820F73
:100DC000931F0996FC0180819181FC012581368168
:100DD0004781508589819A81880F991FBE016F5F75
:100DE0007F4F860F971F0996FC0180819181FC013E
:100DF00081819281A381B481281739074A075B0753
:100E000008F445C089819A81880F991F9E012F5F40
:100E10003F4F820F931F0996FC0100811181898148
:100E20009A81880F991F9E012F5F3F4F820F931F5A
:100E30000996FC0180819181FC012185328589819F
:100E40009A81880F991FAE014F5F5F4F840F951FE6
:100E50000996FC0180819181FC018081082E000CA3
:100E6000990BF9010995F801808389819A81880F8E
:100E7000991F9E012F5F3F4F820F931F0996FC0120
:100E800080819181FC0115821682178210868981EA
:100E90009A81880F991F9E012F5F3F4F820F931FEA
:100EA0000996FC016081718189819A81880F991F5F
:100EB0009E012F5F3F4F820F931F0996FC01808197
:100EC0009181FC0125813681478150858B819C81F0
:100ED000AD81BE81820F931FA41FB51FFB018583C7
:100EE0009683A783B08789819A8101969A838983A3
:100EF00029813A818F8198852817390708F458CFBE
:100F000080911401823071F58091470190914801E0
:100F1000A0914901B0914A01853F9140A105B105D9
:100F2000A0F08091470190914801A0914901B091B2
:100F30004A01845F9140A109B109809347019093D0
:100F40004801A0934901B0934A0184EF91E0A0E0E9
:100F5000B0E08093430190934401A0934501B09386
:100F600046010CC088EE93E0A0E0B0E0809343011E
:100F700090934401A0934501B093460100008091F5
:100F800024018823E1F3109224010FCF97FB072E51
:100F900016F4009407D077FD09D00E94050807FCDD
:100FA00005D03EF4909581959F4F08957095619579
:100FB0007F4F0895A1E21A2EAA1BBB1BFD010DC095
:100FC000AA1FBB1FEE1FFF1FA217B307E407F507F9
:100FD00020F0A21BB30BE40BF50B661F771F881FD5
:100FE000991F1A9469F760957095809590959B016B
:100FF000AC01BD01CF010895EE0FFF1F0024001CBE
:101000000BBE0790F691E02D0994AA1BBB1B51E182
:1010100007C0AA1FBB1FA617B70710F0A61BB70B68
:10102000881F991F5A95A9F780959095BC01CD010D
:1010300008958F929F92AF92BF92CF92DF92EF92DC
:10104000FF92CF93DF93EC01688179818A819B8144
:10105000611571058105910521F464E279ED8BE557
:1010600097E02DE133EF41E050E00E947308490121
:101070005A019B01AC01A7EAB1E40E9492086B01FE
:101080007C01ACEEB4EFA50194010E94A008DC0144
:10109000CB018C0D9D1DAE1DBF1DB7FF03C0019779
:1010A000A109B04888839983AA83BB839F77DF9186
:1010B000CF91FF90EF90DF90CF90BF90AF909F9037
:1010C0008F9008950C94190888E191E00C94190808
:1010D000A0E0B0E08093180190931901A0931A0149
:1010E000B0931B010895052E97FB1EF400940E94F7
:1010F0008A0857FD07D00E94DA0707FC03D04EF498
:101100000C948A0850954095309521953F4F4F4F4C
:101110005F4F089590958095709561957F4F8F4FA3
:101120009F4F08950E94A508A59F900DB49F900D14
:10113000A49F800D911D11240895B7FF0C9492086F
:101140000E949208821B930B0895A29FB001B39F47
:10115000C001A39F700D811D1124911DB29F700DC0
:0C116000811D1124911D0895F894FFCF0B
:10116C0000000002000000006F0000000000010001
:10117C000000040301031004010000002C013701DE
:04118C0042014D01CE
:00000001FF
